{
	"data": {
		"bytecode": {
			"linkReferences": {},
			"object": "608060405234801561001057600080fd5b50610593806100206000396000f3fe608060405234801561001057600080fd5b506004361061002b5760003560e01c8063a25ab0c114610030575b600080fd5b61004a60048036038101906100459190610236565b610060565b604051610057919061034b565b60405180910390f35b6060600060028484905061007491906103a6565b146100b4576040517f08c379a00000000000000000000000000000000000000000000000000000000081526004016100ab9061045a565b60405180910390fd5b60008383905067ffffffffffffffff8111156100d3576100d261047a565b5b6040519080825280602002602001820160405280156101015781602001602082028036833780820191505090505b50905060005b848490508110156101bc576000858583818110610127576101266104a9565b5b905060200201359050600086866001856101419190610507565b818110610151576101506104a9565b5b9050602002013590508084848151811061016e5761016d6104a9565b5b60200260200101818152505081846001856101899190610507565b8151811061019a576101996104a9565b5b60200260200101818152505050506002816101b59190610507565b9050610107565b508091505092915050565b600080fd5b600080fd5b600080fd5b600080fd5b600080fd5b60008083601f8401126101f6576101f56101d1565b5b8235905067ffffffffffffffff811115610213576102126101d6565b5b60208301915083602082028301111561022f5761022e6101db565b5b9250929050565b6000806020838503121561024d5761024c6101c7565b5b600083013567ffffffffffffffff81111561026b5761026a6101cc565b5b610277858286016101e0565b92509250509250929050565b600081519050919050565b600082825260208201905092915050565b6000819050602082019050919050565b6000819050919050565b6102c2816102af565b82525050565b60006102d483836102b9565b60208301905092915050565b6000602082019050919050565b60006102f882610283565b610302818561028e565b935061030d8361029f565b8060005b8381101561033e57815161032588826102c8565b9750610330836102e0565b925050600181019050610311565b5085935050505092915050565b6000602082019050818103600083015261036581846102ed565b905092915050565b6000819050919050565b7f4e487b7100000000000000000000000000000000000000000000000000000000600052601260045260246000fd5b60006103b18261036d565b91506103bc8361036d565b9250826103cc576103cb610377565b5b828206905092915050565b600082825260208201905092915050565b7f4572726f723a206c656e677468206f66206172726179206d757374206265206560008201527f76656e2e00000000000000000000000000000000000000000000000000000000602082015250565b60006104446024836103d7565b915061044f826103e8565b604082019050919050565b6000602082019050818103600083015261047381610437565b9050919050565b7f4e487b7100000000000000000000000000000000000000000000000000000000600052604160045260246000fd5b7f4e487b7100000000000000000000000000000000000000000000000000000000600052603260045260246000fd5b7f4e487b7100000000000000000000000000000000000000000000000000000000600052601160045260246000fd5b60006105128261036d565b915061051d8361036d565b9250827fffffffffffffffffffffffffffffffffffffffffffffffffffffffffffffffff03821115610552576105516104d8565b5b82820190509291505056fea2646970667358221220abc4d29813995abed902a060028b4db80f592de1cb81b0e4a056698154a99c9764736f6c63430008090033",
			"opcodes": "PUSH1 0x80 PUSH1 0x40 MSTORE CALLVALUE DUP1 ISZERO PUSH2 0x10 JUMPI PUSH1 0x0 DUP1 REVERT JUMPDEST POP PUSH2 0x593 DUP1 PUSH2 0x20 PUSH1 0x0 CODECOPY PUSH1 0x0 RETURN INVALID PUSH1 0x80 PUSH1 0x40 MSTORE CALLVALUE DUP1 ISZERO PUSH2 0x10 JUMPI PUSH1 0x0 DUP1 REVERT JUMPDEST POP PUSH1 0x4 CALLDATASIZE LT PUSH2 0x2B JUMPI PUSH1 0x0 CALLDATALOAD PUSH1 0xE0 SHR DUP1 PUSH4 0xA25AB0C1 EQ PUSH2 0x30 JUMPI JUMPDEST PUSH1 0x0 DUP1 REVERT JUMPDEST PUSH2 0x4A PUSH1 0x4 DUP1 CALLDATASIZE SUB DUP2 ADD SWAP1 PUSH2 0x45 SWAP2 SWAP1 PUSH2 0x236 JUMP JUMPDEST PUSH2 0x60 JUMP JUMPDEST PUSH1 0x40 MLOAD PUSH2 0x57 SWAP2 SWAP1 PUSH2 0x34B JUMP JUMPDEST PUSH1 0x40 MLOAD DUP1 SWAP2 SUB SWAP1 RETURN JUMPDEST PUSH1 0x60 PUSH1 0x0 PUSH1 0x2 DUP5 DUP5 SWAP1 POP PUSH2 0x74 SWAP2 SWAP1 PUSH2 0x3A6 JUMP JUMPDEST EQ PUSH2 0xB4 JUMPI PUSH1 0x40 MLOAD PUSH32 0x8C379A000000000000000000000000000000000000000000000000000000000 DUP2 MSTORE PUSH1 0x4 ADD PUSH2 0xAB SWAP1 PUSH2 0x45A JUMP JUMPDEST PUSH1 0x40 MLOAD DUP1 SWAP2 SUB SWAP1 REVERT JUMPDEST PUSH1 0x0 DUP4 DUP4 SWAP1 POP PUSH8 0xFFFFFFFFFFFFFFFF DUP2 GT ISZERO PUSH2 0xD3 JUMPI PUSH2 0xD2 PUSH2 0x47A JUMP JUMPDEST JUMPDEST PUSH1 0x40 MLOAD SWAP1 DUP1 DUP3 MSTORE DUP1 PUSH1 0x20 MUL PUSH1 0x20 ADD DUP3 ADD PUSH1 0x40 MSTORE DUP1 ISZERO PUSH2 0x101 JUMPI DUP2 PUSH1 0x20 ADD PUSH1 0x20 DUP3 MUL DUP1 CALLDATASIZE DUP4 CALLDATACOPY DUP1 DUP3 ADD SWAP2 POP POP SWAP1 POP JUMPDEST POP SWAP1 POP PUSH1 0x0 JUMPDEST DUP5 DUP5 SWAP1 POP DUP2 LT ISZERO PUSH2 0x1BC JUMPI PUSH1 0x0 DUP6 DUP6 DUP4 DUP2 DUP2 LT PUSH2 0x127 JUMPI PUSH2 0x126 PUSH2 0x4A9 JUMP JUMPDEST JUMPDEST SWAP1 POP PUSH1 0x20 MUL ADD CALLDATALOAD SWAP1 POP PUSH1 0x0 DUP7 DUP7 PUSH1 0x1 DUP6 PUSH2 0x141 SWAP2 SWAP1 PUSH2 0x507 JUMP JUMPDEST DUP2 DUP2 LT PUSH2 0x151 JUMPI PUSH2 0x150 PUSH2 0x4A9 JUMP JUMPDEST JUMPDEST SWAP1 POP PUSH1 0x20 MUL ADD CALLDATALOAD SWAP1 POP DUP1 DUP5 DUP5 DUP2 MLOAD DUP2 LT PUSH2 0x16E JUMPI PUSH2 0x16D PUSH2 0x4A9 JUMP JUMPDEST JUMPDEST PUSH1 0x20 MUL PUSH1 0x20 ADD ADD DUP2 DUP2 MSTORE POP POP DUP2 DUP5 PUSH1 0x1 DUP6 PUSH2 0x189 SWAP2 SWAP1 PUSH2 0x507 JUMP JUMPDEST DUP2 MLOAD DUP2 LT PUSH2 0x19A JUMPI PUSH2 0x199 PUSH2 0x4A9 JUMP JUMPDEST JUMPDEST PUSH1 0x20 MUL PUSH1 0x20 ADD ADD DUP2 DUP2 MSTORE POP POP POP POP PUSH1 0x2 DUP2 PUSH2 0x1B5 SWAP2 SWAP1 PUSH2 0x507 JUMP JUMPDEST SWAP1 POP PUSH2 0x107 JUMP JUMPDEST POP DUP1 SWAP2 POP POP SWAP3 SWAP2 POP POP JUMP JUMPDEST PUSH1 0x0 DUP1 REVERT JUMPDEST PUSH1 0x0 DUP1 REVERT JUMPDEST PUSH1 0x0 DUP1 REVERT JUMPDEST PUSH1 0x0 DUP1 REVERT JUMPDEST PUSH1 0x0 DUP1 REVERT JUMPDEST PUSH1 0x0 DUP1 DUP4 PUSH1 0x1F DUP5 ADD SLT PUSH2 0x1F6 JUMPI PUSH2 0x1F5 PUSH2 0x1D1 JUMP JUMPDEST JUMPDEST DUP3 CALLDATALOAD SWAP1 POP PUSH8 0xFFFFFFFFFFFFFFFF DUP2 GT ISZERO PUSH2 0x213 JUMPI PUSH2 0x212 PUSH2 0x1D6 JUMP JUMPDEST JUMPDEST PUSH1 0x20 DUP4 ADD SWAP2 POP DUP4 PUSH1 0x20 DUP3 MUL DUP4 ADD GT ISZERO PUSH2 0x22F JUMPI PUSH2 0x22E PUSH2 0x1DB JUMP JUMPDEST JUMPDEST SWAP3 POP SWAP3 SWAP1 POP JUMP JUMPDEST PUSH1 0x0 DUP1 PUSH1 0x20 DUP4 DUP6 SUB SLT ISZERO PUSH2 0x24D JUMPI PUSH2 0x24C PUSH2 0x1C7 JUMP JUMPDEST JUMPDEST PUSH1 0x0 DUP4 ADD CALLDATALOAD PUSH8 0xFFFFFFFFFFFFFFFF DUP2 GT ISZERO PUSH2 0x26B JUMPI PUSH2 0x26A PUSH2 0x1CC JUMP JUMPDEST JUMPDEST PUSH2 0x277 DUP6 DUP3 DUP7 ADD PUSH2 0x1E0 JUMP JUMPDEST SWAP3 POP SWAP3 POP POP SWAP3 POP SWAP3 SWAP1 POP JUMP JUMPDEST PUSH1 0x0 DUP2 MLOAD SWAP1 POP SWAP2 SWAP1 POP JUMP JUMPDEST PUSH1 0x0 DUP3 DUP3 MSTORE PUSH1 0x20 DUP3 ADD SWAP1 POP SWAP3 SWAP2 POP POP JUMP JUMPDEST PUSH1 0x0 DUP2 SWAP1 POP PUSH1 0x20 DUP3 ADD SWAP1 POP SWAP2 SWAP1 POP JUMP JUMPDEST PUSH1 0x0 DUP2 SWAP1 POP SWAP2 SWAP1 POP JUMP JUMPDEST PUSH2 0x2C2 DUP2 PUSH2 0x2AF JUMP JUMPDEST DUP3 MSTORE POP POP JUMP JUMPDEST PUSH1 0x0 PUSH2 0x2D4 DUP4 DUP4 PUSH2 0x2B9 JUMP JUMPDEST PUSH1 0x20 DUP4 ADD SWAP1 POP SWAP3 SWAP2 POP POP JUMP JUMPDEST PUSH1 0x0 PUSH1 0x20 DUP3 ADD SWAP1 POP SWAP2 SWAP1 POP JUMP JUMPDEST PUSH1 0x0 PUSH2 0x2F8 DUP3 PUSH2 0x283 JUMP JUMPDEST PUSH2 0x302 DUP2 DUP6 PUSH2 0x28E JUMP JUMPDEST SWAP4 POP PUSH2 0x30D DUP4 PUSH2 0x29F JUMP JUMPDEST DUP1 PUSH1 0x0 JUMPDEST DUP4 DUP2 LT ISZERO PUSH2 0x33E JUMPI DUP2 MLOAD PUSH2 0x325 DUP9 DUP3 PUSH2 0x2C8 JUMP JUMPDEST SWAP8 POP PUSH2 0x330 DUP4 PUSH2 0x2E0 JUMP JUMPDEST SWAP3 POP POP PUSH1 0x1 DUP2 ADD SWAP1 POP PUSH2 0x311 JUMP JUMPDEST POP DUP6 SWAP4 POP POP POP POP SWAP3 SWAP2 POP POP JUMP JUMPDEST PUSH1 0x0 PUSH1 0x20 DUP3 ADD SWAP1 POP DUP2 DUP2 SUB PUSH1 0x0 DUP4 ADD MSTORE PUSH2 0x365 DUP2 DUP5 PUSH2 0x2ED JUMP JUMPDEST SWAP1 POP SWAP3 SWAP2 POP POP JUMP JUMPDEST PUSH1 0x0 DUP2 SWAP1 POP SWAP2 SWAP1 POP JUMP JUMPDEST PUSH32 0x4E487B7100000000000000000000000000000000000000000000000000000000 PUSH1 0x0 MSTORE PUSH1 0x12 PUSH1 0x4 MSTORE PUSH1 0x24 PUSH1 0x0 REVERT JUMPDEST PUSH1 0x0 PUSH2 0x3B1 DUP3 PUSH2 0x36D JUMP JUMPDEST SWAP2 POP PUSH2 0x3BC DUP4 PUSH2 0x36D JUMP JUMPDEST SWAP3 POP DUP3 PUSH2 0x3CC JUMPI PUSH2 0x3CB PUSH2 0x377 JUMP JUMPDEST JUMPDEST DUP3 DUP3 MOD SWAP1 POP SWAP3 SWAP2 POP POP JUMP JUMPDEST PUSH1 0x0 DUP3 DUP3 MSTORE PUSH1 0x20 DUP3 ADD SWAP1 POP SWAP3 SWAP2 POP POP JUMP JUMPDEST PUSH32 0x4572726F723A206C656E677468206F66206172726179206D7573742062652065 PUSH1 0x0 DUP3 ADD MSTORE PUSH32 0x76656E2E00000000000000000000000000000000000000000000000000000000 PUSH1 0x20 DUP3 ADD MSTORE POP JUMP JUMPDEST PUSH1 0x0 PUSH2 0x444 PUSH1 0x24 DUP4 PUSH2 0x3D7 JUMP JUMPDEST SWAP2 POP PUSH2 0x44F DUP3 PUSH2 0x3E8 JUMP JUMPDEST PUSH1 0x40 DUP3 ADD SWAP1 POP SWAP2 SWAP1 POP JUMP JUMPDEST PUSH1 0x0 PUSH1 0x20 DUP3 ADD SWAP1 POP DUP2 DUP2 SUB PUSH1 0x0 DUP4 ADD MSTORE PUSH2 0x473 DUP2 PUSH2 0x437 JUMP JUMPDEST SWAP1 POP SWAP2 SWAP1 POP JUMP JUMPDEST PUSH32 0x4E487B7100000000000000000000000000000000000000000000000000000000 PUSH1 0x0 MSTORE PUSH1 0x41 PUSH1 0x4 MSTORE PUSH1 0x24 PUSH1 0x0 REVERT JUMPDEST PUSH32 0x4E487B7100000000000000000000000000000000000000000000000000000000 PUSH1 0x0 MSTORE PUSH1 0x32 PUSH1 0x4 MSTORE PUSH1 0x24 PUSH1 0x0 REVERT JUMPDEST PUSH32 0x4E487B7100000000000000000000000000000000000000000000000000000000 PUSH1 0x0 MSTORE PUSH1 0x11 PUSH1 0x4 MSTORE PUSH1 0x24 PUSH1 0x0 REVERT JUMPDEST PUSH1 0x0 PUSH2 0x512 DUP3 PUSH2 0x36D JUMP JUMPDEST SWAP2 POP PUSH2 0x51D DUP4 PUSH2 0x36D JUMP JUMPDEST SWAP3 POP DUP3 PUSH32 0xFFFFFFFFFFFFFFFFFFFFFFFFFFFFFFFFFFFFFFFFFFFFFFFFFFFFFFFFFFFFFFFF SUB DUP3 GT ISZERO PUSH2 0x552 JUMPI PUSH2 0x551 PUSH2 0x4D8 JUMP JUMPDEST JUMPDEST DUP3 DUP3 ADD SWAP1 POP SWAP3 SWAP2 POP POP JUMP INVALID LOG2 PUSH5 0x6970667358 0x22 SLT KECCAK256 0xAB 0xC4 0xD2 SWAP9 SGT SWAP10 GAS 0xBE 0xD9 MUL LOG0 PUSH1 0x2 DUP12 0x4D 0xB8 0xF MSIZE 0x2D 0xE1 0xCB DUP2 0xB0 0xE4 LOG0 JUMP PUSH10 0x8154A99C9764736F6C63 NUMBER STOP ADDMOD MULMOD STOP CALLER "
		},
		"gasEstimates": {
			"creation": {
				"codeDepositCost": "285400",
				"executionCost": "324",
				"totalCost": "285724"
			},
			"external": {
				"swapPairs(int256[])": "infinite"
			}
		},
		"methodIdentifiers": {
			"swapPairs(int256[])": "a25ab0c1"
		}
	},
	"abi": [
		{
			"inputs": [
				{
					"internalType": "int256[]",
					"name": "arr",
					"type": "int256[]"
				}
			],
			"name": "swapPairs",
			"outputs": [
				{
					"internalType": "int256[]",
					"name": "",
					"type": "int256[]"
				}
			],
			"stateMutability": "pure",
			"type": "function"
		}
	]
}